{
  "contractName": "Dex",
  "abi": [
    {
      "anonymous": false,
      "inputs": [
        {
          "indexed": true,
          "internalType": "address",
          "name": "previousOwner",
          "type": "address"
        },
        {
          "indexed": true,
          "internalType": "address",
          "name": "newOwner",
          "type": "address"
        }
      ],
      "name": "OwnershipTransferred",
      "type": "event"
    },
    {
      "inputs": [
        {
          "internalType": "bytes32",
          "name": "_ticker",
          "type": "bytes32"
        },
        {
          "internalType": "address",
          "name": "_tickerAddress",
          "type": "address"
        }
      ],
      "name": "addToken",
      "outputs": [],
      "stateMutability": "nonpayable",
      "type": "function"
    },
    {
      "inputs": [
        {
          "internalType": "address",
          "name": "",
          "type": "address"
        },
        {
          "internalType": "bytes32",
          "name": "",
          "type": "bytes32"
        }
      ],
      "name": "balances",
      "outputs": [
        {
          "internalType": "uint256",
          "name": "",
          "type": "uint256"
        }
      ],
      "stateMutability": "view",
      "type": "function",
      "constant": true
    },
    {
      "inputs": [
        {
          "internalType": "uint256",
          "name": "_amount",
          "type": "uint256"
        },
        {
          "internalType": "bytes32",
          "name": "_ticker",
          "type": "bytes32"
        }
      ],
      "name": "deposit",
      "outputs": [],
      "stateMutability": "nonpayable",
      "type": "function"
    },
    {
      "inputs": [],
      "name": "depositETH",
      "outputs": [],
      "stateMutability": "payable",
      "type": "function",
      "payable": true
    },
    {
      "inputs": [
        {
          "internalType": "address",
          "name": "_address",
          "type": "address"
        }
      ],
      "name": "getHistory",
      "outputs": [
        {
          "components": [
            {
              "internalType": "string",
              "name": "action",
              "type": "string"
            },
            {
              "internalType": "bytes32",
              "name": "ticker",
              "type": "bytes32"
            },
            {
              "internalType": "address",
              "name": "_address",
              "type": "address"
            },
            {
              "internalType": "uint256",
              "name": "amount",
              "type": "uint256"
            },
            {
              "internalType": "uint64",
              "name": "creationTime",
              "type": "uint64"
            }
          ],
          "internalType": "struct MyWallet.History",
          "name": "",
          "type": "tuple"
        }
      ],
      "stateMutability": "view",
      "type": "function",
      "constant": true
    },
    {
      "inputs": [],
      "name": "getTickers",
      "outputs": [
        {
          "internalType": "bytes32[]",
          "name": "",
          "type": "bytes32[]"
        }
      ],
      "stateMutability": "view",
      "type": "function",
      "constant": true
    },
    {
      "inputs": [
        {
          "internalType": "bytes32",
          "name": "",
          "type": "bytes32"
        },
        {
          "internalType": "uint256",
          "name": "",
          "type": "uint256"
        },
        {
          "internalType": "uint256",
          "name": "",
          "type": "uint256"
        }
      ],
      "name": "marketOrderBook",
      "outputs": [
        {
          "internalType": "uint256",
          "name": "id",
          "type": "uint256"
        },
        {
          "internalType": "address",
          "name": "trader",
          "type": "address"
        },
        {
          "internalType": "enum Dex.Side",
          "name": "side",
          "type": "uint8"
        },
        {
          "internalType": "bytes32",
          "name": "ticker",
          "type": "bytes32"
        },
        {
          "internalType": "uint256",
          "name": "amount",
          "type": "uint256"
        },
        {
          "internalType": "bool",
          "name": "filled",
          "type": "bool"
        }
      ],
      "stateMutability": "view",
      "type": "function",
      "constant": true
    },
    {
      "inputs": [
        {
          "internalType": "bytes32",
          "name": "",
          "type": "bytes32"
        },
        {
          "internalType": "uint256",
          "name": "",
          "type": "uint256"
        },
        {
          "internalType": "uint256",
          "name": "",
          "type": "uint256"
        }
      ],
      "name": "orderBook",
      "outputs": [
        {
          "internalType": "uint256",
          "name": "id",
          "type": "uint256"
        },
        {
          "internalType": "address",
          "name": "trader",
          "type": "address"
        },
        {
          "internalType": "enum Dex.Side",
          "name": "side",
          "type": "uint8"
        },
        {
          "internalType": "bytes32",
          "name": "ticker",
          "type": "bytes32"
        },
        {
          "internalType": "uint256",
          "name": "amount",
          "type": "uint256"
        },
        {
          "internalType": "uint256",
          "name": "price",
          "type": "uint256"
        },
        {
          "internalType": "bool",
          "name": "filled",
          "type": "bool"
        }
      ],
      "stateMutability": "view",
      "type": "function",
      "constant": true
    },
    {
      "inputs": [],
      "name": "owner",
      "outputs": [
        {
          "internalType": "address",
          "name": "",
          "type": "address"
        }
      ],
      "stateMutability": "view",
      "type": "function",
      "constant": true
    },
    {
      "inputs": [],
      "name": "renounceOwnership",
      "outputs": [],
      "stateMutability": "nonpayable",
      "type": "function"
    },
    {
      "inputs": [
        {
          "internalType": "uint256",
          "name": "",
          "type": "uint256"
        }
      ],
      "name": "tickerList",
      "outputs": [
        {
          "internalType": "bytes32",
          "name": "",
          "type": "bytes32"
        }
      ],
      "stateMutability": "view",
      "type": "function",
      "constant": true
    },
    {
      "inputs": [
        {
          "internalType": "bytes32",
          "name": "",
          "type": "bytes32"
        }
      ],
      "name": "tokenMapping",
      "outputs": [
        {
          "internalType": "bytes32",
          "name": "ticker",
          "type": "bytes32"
        },
        {
          "internalType": "address",
          "name": "tokenAddress",
          "type": "address"
        }
      ],
      "stateMutability": "view",
      "type": "function",
      "constant": true
    },
    {
      "inputs": [
        {
          "internalType": "address",
          "name": "newOwner",
          "type": "address"
        }
      ],
      "name": "transferOwnership",
      "outputs": [],
      "stateMutability": "nonpayable",
      "type": "function"
    },
    {
      "inputs": [
        {
          "internalType": "uint256",
          "name": "_amount",
          "type": "uint256"
        },
        {
          "internalType": "bytes32",
          "name": "_ticker",
          "type": "bytes32"
        }
      ],
      "name": "withdraw",
      "outputs": [],
      "stateMutability": "nonpayable",
      "type": "function"
    },
    {
      "inputs": [
        {
          "internalType": "uint256",
          "name": "amount",
          "type": "uint256"
        }
      ],
      "name": "withdrawETH",
      "outputs": [],
      "stateMutability": "nonpayable",
      "type": "function"
    },
    {
      "inputs": [
        {
          "internalType": "bytes32",
          "name": "ticker",
          "type": "bytes32"
        }
      ],
      "name": "getBalance",
      "outputs": [
        {
          "internalType": "uint256",
          "name": "",
          "type": "uint256"
        }
      ],
      "stateMutability": "view",
      "type": "function",
      "constant": true
    },
    {
      "inputs": [
        {
          "internalType": "bytes32",
          "name": "_ticker",
          "type": "bytes32"
        },
        {
          "internalType": "enum Dex.Side",
          "name": "side",
          "type": "uint8"
        }
      ],
      "name": "getOrderBook",
      "outputs": [
        {
          "components": [
            {
              "internalType": "uint256",
              "name": "id",
              "type": "uint256"
            },
            {
              "internalType": "address",
              "name": "trader",
              "type": "address"
            },
            {
              "internalType": "enum Dex.Side",
              "name": "side",
              "type": "uint8"
            },
            {
              "internalType": "bytes32",
              "name": "ticker",
              "type": "bytes32"
            },
            {
              "internalType": "uint256",
              "name": "amount",
              "type": "uint256"
            },
            {
              "internalType": "uint256",
              "name": "price",
              "type": "uint256"
            },
            {
              "internalType": "bool",
              "name": "filled",
              "type": "bool"
            }
          ],
          "internalType": "struct Dex.Order[]",
          "name": "",
          "type": "tuple[]"
        }
      ],
      "stateMutability": "view",
      "type": "function",
      "constant": true
    },
    {
      "inputs": [
        {
          "internalType": "bytes32",
          "name": "_ticker",
          "type": "bytes32"
        },
        {
          "internalType": "enum Dex.Side",
          "name": "side",
          "type": "uint8"
        }
      ],
      "name": "getMarketOrderBook",
      "outputs": [
        {
          "components": [
            {
              "internalType": "uint256",
              "name": "id",
              "type": "uint256"
            },
            {
              "internalType": "address",
              "name": "trader",
              "type": "address"
            },
            {
              "internalType": "enum Dex.Side",
              "name": "side",
              "type": "uint8"
            },
            {
              "internalType": "bytes32",
              "name": "ticker",
              "type": "bytes32"
            },
            {
              "internalType": "uint256",
              "name": "amount",
              "type": "uint256"
            },
            {
              "internalType": "bool",
              "name": "filled",
              "type": "bool"
            }
          ],
          "internalType": "struct Dex.marketOrder[]",
          "name": "",
          "type": "tuple[]"
        }
      ],
      "stateMutability": "view",
      "type": "function",
      "constant": true
    },
    {
      "inputs": [
        {
          "internalType": "enum Dex.Side",
          "name": "side",
          "type": "uint8"
        },
        {
          "internalType": "bytes32",
          "name": "ticker",
          "type": "bytes32"
        },
        {
          "internalType": "uint256",
          "name": "amount",
          "type": "uint256"
        },
        {
          "internalType": "uint256",
          "name": "price",
          "type": "uint256"
        }
      ],
      "name": "createLimitOrder",
      "outputs": [],
      "stateMutability": "nonpayable",
      "type": "function"
    },
    {
      "inputs": [
        {
          "internalType": "enum Dex.Side",
          "name": "side",
          "type": "uint8"
        },
        {
          "internalType": "bytes32",
          "name": "ticker",
          "type": "bytes32"
        },
        {
          "internalType": "uint256",
          "name": "amount",
          "type": "uint256"
        }
      ],
      "name": "createMarketOrder",
      "outputs": [],
      "stateMutability": "nonpayable",
      "type": "function"
    }
  ],
  "bytecode": "0x60806040523480156200001157600080fd5b5062000032620000266200003860201b60201c565b6200004060201b60201c565b62000104565b600033905090565b60008060009054906101000a900473ffffffffffffffffffffffffffffffffffffffff169050816000806101000a81548173ffffffffffffffffffffffffffffffffffffffff021916908373ffffffffffffffffffffffffffffffffffffffff1602179055508173ffffffffffffffffffffffffffffffffffffffff168173ffffffffffffffffffffffffffffffffffffffff167f8be0079c531659141344cd1fd0a4f28419497f9722a3daafe3b4186f6b6457e060405160405180910390a35050565b615e0a80620001146000396000f3fe60806040526004361061011f5760003560e01c80638e739461116100a0578063c9630cb011610064578063c9630cb014610429578063cb3764a814610452578063f14210a61461048f578063f2fde38b146104b8578063f6326fb3146104e15761011f565b80638e739461146103345780639776aacf1461037157806399ec2f1c1461039a578063a8d2021a146103c3578063ba58ea68146103ec5761011f565b8063667cb4ba116100e7578063667cb4ba1461024e5780636f3b62f91461028c578063715018a6146102b557806380396811146102cc5780638da5cb5b146103095761011f565b806301068dea146101245780630bb431b61461014f5780631f14df691461019257806337b03839146101cf57806359fcdbd61461020c575b600080fd5b34801561013057600080fd5b506101396104eb565b6040516101469190615655565b60405180910390f35b34801561015b57600080fd5b5061017660048036038101906101719190614d11565b610543565b604051610189979695949392919061591d565b60405180910390f35b34801561019e57600080fd5b506101b960048036038101906101b49190614c0b565b6105e9565b6040516101c691906158a1565b60405180910390f35b3480156101db57600080fd5b506101f660048036038101906101f19190614cd5565b61060e565b6040516102039190615699565b60405180910390f35b34801561021857600080fd5b50610233600480360381019061022e9190614d11565b6107e0565b604051610245969594939291906158bc565b60405180910390f35b34801561025a57600080fd5b5061027560048036038101906102709190614c70565b610880565b6040516102839291906156d6565b60405180910390f35b34801561029857600080fd5b506102b360048036038101906102ae9190614daf565b6108c4565b005b3480156102c157600080fd5b506102ca6118f6565b005b3480156102d857600080fd5b506102f360048036038101906102ee9190614be2565b61197e565b604051610300919061587f565b60405180910390f35b34801561031557600080fd5b5061031e611b61565b60405161032b91906155da565b60405180910390f35b34801561034057600080fd5b5061035b60048036038101906103569190614c70565b611b8a565b60405161036891906158a1565b60405180910390f35b34801561037d57600080fd5b5061039860048036038101906103939190614c99565b611be4565b005b3480156103a657600080fd5b506103c160048036038101906103bc9190614d60565b611dc4565b005b3480156103cf57600080fd5b506103ea60048036038101906103e59190614e64565b612375565b005b3480156103f857600080fd5b50610413600480360381019061040e9190614cd5565b61278f565b6040516104209190615677565b60405180910390f35b34801561043557600080fd5b50610450600480360381019061044b9190614e64565b61296b565b005b34801561045e57600080fd5b5061047960048036038101906104749190614e12565b612dc5565b60405161048691906156bb565b60405180910390f35b34801561049b57600080fd5b506104b660048036038101906104b19190614e12565b612de9565b005b3480156104c457600080fd5b506104df60048036038101906104da9190614be2565b61319c565b005b6104e9613294565b005b6060600180548060200260200160405190810160405280929190818152602001828054801561053957602002820191906000526020600020905b815481526020019060010190808311610525575b5050505050905090565b6005602052826000526040600020602052816000526040600020818154811061056b57600080fd5b906000526020600020906006020160009250925050508060000154908060010160009054906101000a900473ffffffffffffffffffffffffffffffffffffffff16908060010160149054906101000a900460ff16908060020154908060030154908060040154908060050160009054906101000a900460ff16905087565b6003602052816000526040600020602052806000526040600020600091509150505481565b606060066000848152602001908152602001600020600083600181111561065e577f4e487b7100000000000000000000000000000000000000000000000000000000600052602160045260246000fd5b8152602001908152602001600020805480602002602001604051908101604052809291908181526020016000905b828210156107d457838290600052602060002090600502016040518060c0016040529081600082015481526020016001820160009054906101000a900473ffffffffffffffffffffffffffffffffffffffff1673ffffffffffffffffffffffffffffffffffffffff1673ffffffffffffffffffffffffffffffffffffffff1681526020016001820160149054906101000a900460ff16600181111561075a577f4e487b7100000000000000000000000000000000000000000000000000000000600052602160045260246000fd5b6001811115610792577f4e487b7100000000000000000000000000000000000000000000000000000000600052602160045260246000fd5b815260200160028201548152602001600382015481526020016004820160009054906101000a900460ff1615151515815250508152602001906001019061068c565b50505050905092915050565b6006602052826000526040600020602052816000526040600020818154811061080857600080fd5b906000526020600020906005020160009250925050508060000154908060010160009054906101000a900473ffffffffffffffffffffffffffffffffffffffff16908060010160149054906101000a900460ff16908060020154908060030154908060040160009054906101000a900460ff16905086565b60026020528060005260406000206000915090508060000154908060010160009054906101000a900473ffffffffffffffffffffffffffffffffffffffff16905082565b600060018111156108fe577f4e487b7100000000000000000000000000000000000000000000000000000000600052602160045260246000fd5b846001811115610937577f4e487b7100000000000000000000000000000000000000000000000000000000600052602160045260246000fd5b14156109b85780826109499190615ac5565b6109727f4554480000000000000000000000000000000000000000000000000000000000611b8a565b10156109b3576040517f08c379a00000000000000000000000000000000000000000000000000000000081526004016109aa9061577f565b60405180910390fd5b610a7d565b6001808111156109f1577f4e487b7100000000000000000000000000000000000000000000000000000000600052602160045260246000fd5b846001811115610a2a577f4e487b7100000000000000000000000000000000000000000000000000000000600052602160045260246000fd5b1415610a7c5781610a3a84611b8a565b1015610a7b576040517f08c379a0000000000000000000000000000000000000000000000000000000008152600401610a72906157df565b60405180910390fd5b5b5b6000610a8960076134df565b90506000600560008681526020019081526020016000206000876001811115610adb577f4e487b7100000000000000000000000000000000000000000000000000000000600052602160045260246000fd5b81526020019081526020016000209050806040518060e001604052808481526020013373ffffffffffffffffffffffffffffffffffffffff168152602001886001811115610b52577f4e487b7100000000000000000000000000000000000000000000000000000000600052602160045260246000fd5b81526020018781526020018681526020018581526020016000151581525090806001815401808255809150506001900390600052602060002090600602016000909190919091506000820151816000015560208201518160010160006101000a81548173ffffffffffffffffffffffffffffffffffffffff021916908373ffffffffffffffffffffffffffffffffffffffff16021790555060408201518160010160146101000a81548160ff02191690836001811115610c3b577f4e487b7100000000000000000000000000000000000000000000000000000000600052602160045260246000fd5b0217905550606082015181600201556080820151816003015560a0820151816004015560c08201518160050160006101000a81548160ff0219169083151502179055505050600080828054905011610c94576000610ca6565b60018280549050610ca59190615b1f565b5b905060006001811115610ce2577f4e487b7100000000000000000000000000000000000000000000000000000000600052602160045260246000fd5b876001811115610d1b577f4e487b7100000000000000000000000000000000000000000000000000000000600052602160045260246000fd5b14156112c9575b600081111561125f5781600182610d399190615b1f565b81548110610d70577f4e487b7100000000000000000000000000000000000000000000000000000000600052603260045260246000fd5b906000526020600020906006020160040154828281548110610dbb577f4e487b7100000000000000000000000000000000000000000000000000000000600052603260045260246000fd5b9060005260206000209060060201600401541115611247576000828281548110610e0e577f4e487b7100000000000000000000000000000000000000000000000000000000600052603260045260246000fd5b90600052602060002090600602016040518060e0016040529081600082015481526020016001820160009054906101000a900473ffffffffffffffffffffffffffffffffffffffff1673ffffffffffffffffffffffffffffffffffffffff1673ffffffffffffffffffffffffffffffffffffffff1681526020016001820160149054906101000a900460ff166001811115610ed2577f4e487b7100000000000000000000000000000000000000000000000000000000600052602160045260246000fd5b6001811115610f0a577f4e487b7100000000000000000000000000000000000000000000000000000000600052602160045260246000fd5b81526020016002820154815260200160038201548152602001600482015481526020016005820160009054906101000a900460ff161515151581525050905082600183610f579190615b1f565b81548110610f8e577f4e487b7100000000000000000000000000000000000000000000000000000000600052603260045260246000fd5b9060005260206000209060060201838381548110610fd5577f4e487b7100000000000000000000000000000000000000000000000000000000600052603260045260246000fd5b9060005260206000209060060201600082015481600001556001820160009054906101000a900473ffffffffffffffffffffffffffffffffffffffff168160010160006101000a81548173ffffffffffffffffffffffffffffffffffffffff021916908373ffffffffffffffffffffffffffffffffffffffff1602179055506001820160149054906101000a900460ff168160010160146101000a81548160ff021916908360018111156110b2577f4e487b7100000000000000000000000000000000000000000000000000000000600052602160045260246000fd5b02179055506002820154816002015560038201548160030155600482015481600401556005820160009054906101000a900460ff168160050160006101000a81548160ff02191690831515021790555090505080836001846111149190615b1f565b8154811061114b577f4e487b7100000000000000000000000000000000000000000000000000000000600052603260045260246000fd5b90600052602060002090600602016000820151816000015560208201518160010160006101000a81548173ffffffffffffffffffffffffffffffffffffffff021916908373ffffffffffffffffffffffffffffffffffffffff16021790555060408201518160010160146101000a81548160ff021916908360018111156111fb577f4e487b7100000000000000000000000000000000000000000000000000000000600052602160045260246000fd5b0217905550606082015181600201556080820151816003015560a0820151816004015560c08201518160050160006101000a81548160ff0219169083151502179055509050505061124c565b61125f565b808061125790615c11565b915050610d22565b6000600660008881526020019081526020016000206000600181526020019081526020016000208054905011156112c4576112c3826006600089815260200190815260200160002060006001815260200190815260200160002088600160006134ed565b5b6118e3565b600180811115611302577f4e487b7100000000000000000000000000000000000000000000000000000000600052602160045260246000fd5b87600181111561133b577f4e487b7100000000000000000000000000000000000000000000000000000000600052602160045260246000fd5b14156118e2575b600081111561187f57816001826113599190615b1f565b81548110611390577f4e487b7100000000000000000000000000000000000000000000000000000000600052603260045260246000fd5b9060005260206000209060060201600401548282815481106113db577f4e487b7100000000000000000000000000000000000000000000000000000000600052603260045260246000fd5b906000526020600020906006020160040154101561186757600082828154811061142e577f4e487b7100000000000000000000000000000000000000000000000000000000600052603260045260246000fd5b90600052602060002090600602016040518060e0016040529081600082015481526020016001820160009054906101000a900473ffffffffffffffffffffffffffffffffffffffff1673ffffffffffffffffffffffffffffffffffffffff1673ffffffffffffffffffffffffffffffffffffffff1681526020016001820160149054906101000a900460ff1660018111156114f2577f4e487b7100000000000000000000000000000000000000000000000000000000600052602160045260246000fd5b600181111561152a577f4e487b7100000000000000000000000000000000000000000000000000000000600052602160045260246000fd5b81526020016002820154815260200160038201548152602001600482015481526020016005820160009054906101000a900460ff1615151515815250509050826001836115779190615b1f565b815481106115ae577f4e487b7100000000000000000000000000000000000000000000000000000000600052603260045260246000fd5b90600052602060002090600602018383815481106115f5577f4e487b7100000000000000000000000000000000000000000000000000000000600052603260045260246000fd5b9060005260206000209060060201600082015481600001556001820160009054906101000a900473ffffffffffffffffffffffffffffffffffffffff168160010160006101000a81548173ffffffffffffffffffffffffffffffffffffffff021916908373ffffffffffffffffffffffffffffffffffffffff1602179055506001820160149054906101000a900460ff168160010160146101000a81548160ff021916908360018111156116d2577f4e487b7100000000000000000000000000000000000000000000000000000000600052602160045260246000fd5b02179055506002820154816002015560038201548160030155600482015481600401556005820160009054906101000a900460ff168160050160006101000a81548160ff02191690831515021790555090505080836001846117349190615b1f565b8154811061176b577f4e487b7100000000000000000000000000000000000000000000000000000000600052603260045260246000fd5b90600052602060002090600602016000820151816000015560208201518160010160006101000a81548173ffffffffffffffffffffffffffffffffffffffff021916908373ffffffffffffffffffffffffffffffffffffffff16021790555060408201518160010160146101000a81548160ff0219169083600181111561181b577f4e487b7100000000000000000000000000000000000000000000000000000000600052602160045260246000fd5b0217905550606082015181600201556080820151816003015560a0820151816004015560c08201518160050160006101000a81548160ff0219169083151502179055509050505061186c565b61187f565b808061187790615c11565b915050611342565b60006006600088815260200190815260200160002060008081526020019081526020016000208054905011156118e1576118e082600660008981526020019081526020016000206000808152602001908152602001600020886000806134ed565b5b5b5b6118ed6007614181565b50505050505050565b6118fe614197565b73ffffffffffffffffffffffffffffffffffffffff1661191c611b61565b73ffffffffffffffffffffffffffffffffffffffff1614611972576040517f08c379a00000000000000000000000000000000000000000000000000000000081526004016119699061581f565b60405180910390fd5b61197c600061419f565b565b611986614a6f565b6000600460008473ffffffffffffffffffffffffffffffffffffffff1673ffffffffffffffffffffffffffffffffffffffff168152602001908152602001600020905080600182805490506119db9190615b1f565b81548110611a12577f4e487b7100000000000000000000000000000000000000000000000000000000600052603260045260246000fd5b90600052602060002090600502016040518060a0016040529081600082018054611a3b90615c3b565b80601f0160208091040260200160405190810160405280929190818152602001828054611a6790615c3b565b8015611ab45780601f10611a8957610100808354040283529160200191611ab4565b820191906000526020600020905b815481529060010190602001808311611a9757829003601f168201915b50505050508152602001600182015481526020016002820160009054906101000a900473ffffffffffffffffffffffffffffffffffffffff1673ffffffffffffffffffffffffffffffffffffffff1673ffffffffffffffffffffffffffffffffffffffff168152602001600382015481526020016004820160009054906101000a900467ffffffffffffffff1667ffffffffffffffff1667ffffffffffffffff1681525050915050919050565b60008060009054906101000a900473ffffffffffffffffffffffffffffffffffffffff16905090565b6000600360003373ffffffffffffffffffffffffffffffffffffffff1673ffffffffffffffffffffffffffffffffffffffff1681526020019081526020016000206000838152602001908152602001600020549050919050565b611bec614197565b73ffffffffffffffffffffffffffffffffffffffff16611c0a611b61565b73ffffffffffffffffffffffffffffffffffffffff1614611c60576040517f08c379a0000000000000000000000000000000000000000000000000000000008152600401611c579061581f565b60405180910390fd5b600073ffffffffffffffffffffffffffffffffffffffff166002600084815260200190815260200160002060010160009054906101000a900473ffffffffffffffffffffffffffffffffffffffff1673ffffffffffffffffffffffffffffffffffffffff1614611d05576040517f08c379a0000000000000000000000000000000000000000000000000000000008152600401611cfc906157bf565b60405180910390fd5b60405180604001604052808381526020018273ffffffffffffffffffffffffffffffffffffffff16815250600260008481526020019081526020016000206000820151816000015560208201518160010160006101000a81548173ffffffffffffffffffffffffffffffffffffffff021916908373ffffffffffffffffffffffffffffffffffffffff16021790555090505060018290806001815401808255809150506001900390600052602060002001600090919091909150555050565b826001811115611dfd577f4e487b7100000000000000000000000000000000000000000000000000000000600052602160045260246000fd5b600180811115611e36577f4e487b7100000000000000000000000000000000000000000000000000000000600052602160045260246000fd5b141561209d57611e4582611b8a565b811115611e87576040517f08c379a0000000000000000000000000000000000000000000000000000000008152600401611e7e9061585f565b60405180910390fd5b6000611e9360086134df565b905060006006600085815260200190815260200160002060006001815260200190815260200160002090506000600560008681526020019081526020016000206000808152602001908152602001600020905060008180549050141561208757816040518060c001604052808581526020013373ffffffffffffffffffffffffffffffffffffffff168152602001886001811115611f5a577f4e487b7100000000000000000000000000000000000000000000000000000000600052602160045260246000fd5b81526020018781526020018681526020016000151581525090806001815401808255809150506001900390600052602060002090600502016000909190919091506000820151816000015560208201518160010160006101000a81548173ffffffffffffffffffffffffffffffffffffffff021916908373ffffffffffffffffffffffffffffffffffffffff16021790555060408201518160010160146101000a81548160ff0219169083600181111561203d577f4e487b7100000000000000000000000000000000000000000000000000000000600052602160045260246000fd5b0217905550606082015181600201556080820151816003015560a08201518160040160006101000a81548160ff02191690831515021790555050506120826008614181565b612095565b61209481838789886134ed565b5b505050612370565b8260018111156120d6577f4e487b7100000000000000000000000000000000000000000000000000000000600052602160045260246000fd5b60006001811115612110577f4e487b7100000000000000000000000000000000000000000000000000000000600052602160045260246000fd5b141561236f57600061212260086134df565b905060006006600085815260200190815260200160002060008081526020019081526020016000209050600060056000868152602001908152602001600020600060018152602001908152602001600020905060008180549050141561231657816040518060c001604052808581526020013373ffffffffffffffffffffffffffffffffffffffff1681526020018860018111156121e9577f4e487b7100000000000000000000000000000000000000000000000000000000600052602160045260246000fd5b81526020018781526020018681526020016000151581525090806001815401808255809150506001900390600052602060002090600502016000909190919091506000820151816000015560208201518160010160006101000a81548173ffffffffffffffffffffffffffffffffffffffff021916908373ffffffffffffffffffffffffffffffffffffffff16021790555060408201518160010160146101000a81548160ff021916908360018111156122cc577f4e487b7100000000000000000000000000000000000000000000000000000000600052602160045260246000fd5b0217905550606082015181600201556080820151816003015560a08201518160040160006101000a81548160ff02191690831515021790555050506123116008614181565b61236b565b61236a600560008781526020019081526020016000206000600181526020019081526020016000206006600088815260200190815260200160002060008081526020019081526020016000208789886134ed565b5b5050505b5b505050565b80600073ffffffffffffffffffffffffffffffffffffffff166002600083815260200190815260200160002060010160009054906101000a900473ffffffffffffffffffffffffffffffffffffffff1673ffffffffffffffffffffffffffffffffffffffff16141561241c576040517f08c379a0000000000000000000000000000000000000000000000000000000008152600401612413906157ff565b60405180910390fd5b8260036000612429614197565b73ffffffffffffffffffffffffffffffffffffffff1673ffffffffffffffffffffffffffffffffffffffff16815260200190815260200160002060008481526020019081526020016000205410156124b6576040517f08c379a00000000000000000000000000000000000000000000000000000000081526004016124ad9061571f565b60405180910390fd5b82600360006124c3614197565b73ffffffffffffffffffffffffffffffffffffffff1673ffffffffffffffffffffffffffffffffffffffff1681526020019081526020016000206000848152602001908152602001600020600082825461251d9190615b1f565b9250508190555060046000612530614197565b73ffffffffffffffffffffffffffffffffffffffff1673ffffffffffffffffffffffffffffffffffffffff1681526020019081526020016000206040518060a001604052806040518060400160405280600881526020017f576974686472617700000000000000000000000000000000000000000000000081525081526020018481526020016125be614197565b73ffffffffffffffffffffffffffffffffffffffff1681526020018581526020014267ffffffffffffffff1681525090806001815401808255809150506001900390600052602060002090600502016000909190919091506000820151816000019080519060200190612632929190614ac1565b506020820151816001015560408201518160020160006101000a81548173ffffffffffffffffffffffffffffffffffffffff021916908373ffffffffffffffffffffffffffffffffffffffff1602179055506060820151816003015560808201518160040160006101000a81548167ffffffffffffffff021916908367ffffffffffffffff16021790555050506002600083815260200190815260200160002060010160009054906101000a900473ffffffffffffffffffffffffffffffffffffffff1673ffffffffffffffffffffffffffffffffffffffff1663a9059cbb612719614197565b856040518363ffffffff1660e01b815260040161273792919061562c565b602060405180830381600087803b15801561275157600080fd5b505af1158015612765573d6000803e3d6000fd5b505050506040513d601f19601f820116820180604052508101906127899190614c47565b50505050565b60606005600084815260200190815260200160002060008360018111156127df577f4e487b7100000000000000000000000000000000000000000000000000000000600052602160045260246000fd5b8152602001908152602001600020805480602002602001604051908101604052809291908181526020016000905b8282101561295f57838290600052602060002090600602016040518060e0016040529081600082015481526020016001820160009054906101000a900473ffffffffffffffffffffffffffffffffffffffff1673ffffffffffffffffffffffffffffffffffffffff1673ffffffffffffffffffffffffffffffffffffffff1681526020016001820160149054906101000a900460ff1660018111156128db577f4e487b7100000000000000000000000000000000000000000000000000000000600052602160045260246000fd5b6001811115612913577f4e487b7100000000000000000000000000000000000000000000000000000000600052602160045260246000fd5b81526020016002820154815260200160038201548152602001600482015481526020016005820160009054906101000a900460ff1615151515815250508152602001906001019061280d565b50505050905092915050565b80600073ffffffffffffffffffffffffffffffffffffffff166002600083815260200190815260200160002060010160009054906101000a900473ffffffffffffffffffffffffffffffffffffffff1673ffffffffffffffffffffffffffffffffffffffff161415612a12576040517f08c379a0000000000000000000000000000000000000000000000000000000008152600401612a09906157ff565b60405180910390fd5b60006002600084815260200190815260200160002060010160009054906101000a900473ffffffffffffffffffffffffffffffffffffffff169050838173ffffffffffffffffffffffffffffffffffffffff166370a08231612a72614197565b6040518263ffffffff1660e01b8152600401612a8e91906155da565b60206040518083038186803b158015612aa657600080fd5b505afa158015612aba573d6000803e3d6000fd5b505050506040513d601f19601f82011682018060405250810190612ade9190614e3b565b1015612b1f576040517f08c379a0000000000000000000000000000000000000000000000000000000008152600401612b169061579f565b60405180910390fd5b8360036000612b2c614197565b73ffffffffffffffffffffffffffffffffffffffff1673ffffffffffffffffffffffffffffffffffffffff16815260200190815260200160002060008581526020019081526020016000206000828254612b869190615a6f565b9250508190555060046000612b99614197565b73ffffffffffffffffffffffffffffffffffffffff1673ffffffffffffffffffffffffffffffffffffffff1681526020019081526020016000206040518060a001604052806040518060400160405280600781526020017f4465706f736974000000000000000000000000000000000000000000000000008152508152602001858152602001612c27614197565b73ffffffffffffffffffffffffffffffffffffffff1681526020018681526020014267ffffffffffffffff1681525090806001815401808255809150506001900390600052602060002090600502016000909190919091506000820151816000019080519060200190612c9b929190614ac1565b506020820151816001015560408201518160020160006101000a81548173ffffffffffffffffffffffffffffffffffffffff021916908373ffffffffffffffffffffffffffffffffffffffff1602179055506060820151816003015560808201518160040160006101000a81548167ffffffffffffffff021916908367ffffffffffffffff16021790555050508073ffffffffffffffffffffffffffffffffffffffff166323b872dd612d4c614197565b30876040518463ffffffff1660e01b8152600401612d6c939291906155f5565b602060405180830381600087803b158015612d8657600080fd5b505af1158015612d9a573d6000803e3d6000fd5b505050506040513d601f19601f82011682018060405250810190612dbe9190614c47565b5050505050565b60018181548110612dd557600080fd5b906000526020600020016000915090505481565b8060036000612df6614197565b73ffffffffffffffffffffffffffffffffffffffff1673ffffffffffffffffffffffffffffffffffffffff16815260200190815260200160002060007f45544800000000000000000000000000000000000000000000000000000000008152602001908152602001600020541015612ea3576040517f08c379a0000000000000000000000000000000000000000000000000000000008152600401612e9a9061575f565b60405180910390fd5b8060036000612eb0614197565b73ffffffffffffffffffffffffffffffffffffffff1673ffffffffffffffffffffffffffffffffffffffff16815260200190815260200160002060007f455448000000000000000000000000000000000000000000000000000000000081526020019081526020016000206000828254612f2a9190615b1f565b9250508190555060046000612f3d614197565b73ffffffffffffffffffffffffffffffffffffffff1673ffffffffffffffffffffffffffffffffffffffff1681526020019081526020016000206040518060a001604052806040518060400160405280600881526020017f576974686472617700000000000000000000000000000000000000000000000081525081526020017f45544800000000000000000000000000000000000000000000000000000000008152602001612feb614197565b73ffffffffffffffffffffffffffffffffffffffff1681526020018381526020014267ffffffffffffffff168152509080600181540180825580915050600190039060005260206000209060050201600090919091909150600082015181600001908051906020019061305f929190614ac1565b506020820151816001015560408201518160020160006101000a81548173ffffffffffffffffffffffffffffffffffffffff021916908373ffffffffffffffffffffffffffffffffffffffff1602179055506060820151816003015560808201518160040160006101000a81548167ffffffffffffffff021916908367ffffffffffffffff160217905550505060003373ffffffffffffffffffffffffffffffffffffffff1682604051613112906155c5565b60006040518083038185875af1925050503d806000811461314f576040519150601f19603f3d011682016040523d82523d6000602084013e613154565b606091505b5050905080613198576040517f08c379a000000000000000000000000000000000000000000000000000000000815260040161318f9061583f565b60405180910390fd5b5050565b6131a4614197565b73ffffffffffffffffffffffffffffffffffffffff166131c2611b61565b73ffffffffffffffffffffffffffffffffffffffff1614613218576040517f08c379a000000000000000000000000000000000000000000000000000000000815260040161320f9061581f565b60405180910390fd5b600073ffffffffffffffffffffffffffffffffffffffff168173ffffffffffffffffffffffffffffffffffffffff161415613288576040517f08c379a000000000000000000000000000000000000000000000000000000000815260040161327f9061573f565b60405180910390fd5b6132918161419f565b50565b34600360006132a1614197565b73ffffffffffffffffffffffffffffffffffffffff1673ffffffffffffffffffffffffffffffffffffffff16815260200190815260200160002060007f45544800000000000000000000000000000000000000000000000000000000008152602001908152602001600020600082825461331b9190615a6f565b925050819055506004600061332e614197565b73ffffffffffffffffffffffffffffffffffffffff1673ffffffffffffffffffffffffffffffffffffffff1681526020019081526020016000206040518060a001604052806040518060400160405280600781526020017f4465706f7369740000000000000000000000000000000000000000000000000081525081526020017f455448000000000000000000000000000000000000000000000000000000000081526020016133dc614197565b73ffffffffffffffffffffffffffffffffffffffff1681526020013481526020014267ffffffffffffffff1681525090806001815401808255809150506001900390600052602060002090600502016000909190919091506000820151816000019080519060200190613450929190614ac1565b506020820151816001015560408201518160020160006101000a81548173ffffffffffffffffffffffffffffffffffffffff021916908373ffffffffffffffffffffffffffffffffffffffff1602179055506060820151816003015560808201518160040160006101000a81548167ffffffffffffffff021916908367ffffffffffffffff1602179055505050565b600081600001549050919050565b5b6000858054905011801561351157506000848054905011806135105750600081115b5b15613f5d57600080600090506000868054905011156135eb5785600081548110613564577f4e487b7100000000000000000000000000000000000000000000000000000000600052603260045260246000fd5b906000526020600020906005020160010160009054906101000a900473ffffffffffffffffffffffffffffffffffffffff169150856000815481106135d2577f4e487b7100000000000000000000000000000000000000000000000000000000600052603260045260246000fd5b90600052602060002090600502016003015492506135ef565b3391505b60006001811115613629577f4e487b7100000000000000000000000000000000000000000000000000000000600052602160045260246000fd5b846001811115613662577f4e487b7100000000000000000000000000000000000000000000000000000000600052602160045260246000fd5b14156137bc57866000815481106136a2577f4e487b7100000000000000000000000000000000000000000000000000000000600052603260045260246000fd5b906000526020600020906006020160030154876000815481106136ee577f4e487b7100000000000000000000000000000000000000000000000000000000600052603260045260246000fd5b90600052602060002090600602016004015461370a9190615ac5565b600360008473ffffffffffffffffffffffffffffffffffffffff1673ffffffffffffffffffffffffffffffffffffffff16815260200190815260200160002060007f4554480000000000000000000000000000000000000000000000000000000000815260200190815260200160002054116137bb576040517f08c379a00000000000000000000000000000000000000000000000000000000081526004016137b2906156ff565b60405180910390fd5b5b866000815481106137f6577f4e487b7100000000000000000000000000000000000000000000000000000000600052603260045260246000fd5b906000526020600020906006020160030154831061396f5786600081548110613848577f4e487b7100000000000000000000000000000000000000000000000000000000600052603260045260246000fd5b906000526020600020906006020160030154836138659190615b1f565b92506001876000815481106138a3577f4e487b7100000000000000000000000000000000000000000000000000000000600052603260045260246000fd5b906000526020600020906006020160050160006101000a81548160ff02191690831515021790555086600081548110613905577f4e487b7100000000000000000000000000000000000000000000000000000000600052603260045260246000fd5b9060005260206000209060060201600301549050600087600081548110613955577f4e487b7100000000000000000000000000000000000000000000000000000000600052603260045260246000fd5b906000526020600020906006020160030181905550613a2d565b866000815481106139a9577f4e487b7100000000000000000000000000000000000000000000000000000000600052603260045260246000fd5b906000526020600020906006020160030154831015613a2c5782876000815481106139fd577f4e487b7100000000000000000000000000000000000000000000000000000000600052603260045260246000fd5b90600052602060002090600602016003016000828254613a1d9190615b1f565b92505081905550829050600092505b5b60006001811115613a67577f4e487b7100000000000000000000000000000000000000000000000000000000600052602160045260246000fd5b846001811115613aa0577f4e487b7100000000000000000000000000000000000000000000000000000000600052602160045260246000fd5b1415613c9557613c9087600081548110613ae3577f4e487b7100000000000000000000000000000000000000000000000000000000600052603260045260246000fd5b90600052602060002090600602016040518060e0016040529081600082015481526020016001820160009054906101000a900473ffffffffffffffffffffffffffffffffffffffff1673ffffffffffffffffffffffffffffffffffffffff1673ffffffffffffffffffffffffffffffffffffffff1681526020016001820160149054906101000a900460ff166001811115613ba7577f4e487b7100000000000000000000000000000000000000000000000000000000600052602160045260246000fd5b6001811115613bdf577f4e487b7100000000000000000000000000000000000000000000000000000000600052602160045260246000fd5b81526020016002820154815260200160038201548152602001600482015481526020016005820160009054906101000a900460ff1615151515815250508289600081548110613c57577f4e487b7100000000000000000000000000000000000000000000000000000000600052603260045260246000fd5b906000526020600020906006020160010160009054906101000a900473ffffffffffffffffffffffffffffffffffffffff168589614263565b613e80565b613e7f87600081548110613cd2577f4e487b7100000000000000000000000000000000000000000000000000000000600052603260045260246000fd5b90600052602060002090600602016040518060e0016040529081600082015481526020016001820160009054906101000a900473ffffffffffffffffffffffffffffffffffffffff1673ffffffffffffffffffffffffffffffffffffffff1673ffffffffffffffffffffffffffffffffffffffff1681526020016001820160149054906101000a900460ff166001811115613d96577f4e487b7100000000000000000000000000000000000000000000000000000000600052602160045260246000fd5b6001811115613dce577f4e487b7100000000000000000000000000000000000000000000000000000000600052602160045260246000fd5b81526020016002820154815260200160038201548152602001600482015481526020016005820160009054906101000a900460ff16151515158152505082848a600081548110613e47577f4e487b7100000000000000000000000000000000000000000000000000000000600052603260045260246000fd5b906000526020600020906006020160010160009054906101000a900473ffffffffffffffffffffffffffffffffffffffff1689614263565b5b600086805490501115613f4c578286600081548110613ec8577f4e487b7100000000000000000000000000000000000000000000000000000000600052603260045260246000fd5b9060005260206000209060050201600301819055506000831415613f4b57600186600081548110613f22577f4e487b7100000000000000000000000000000000000000000000000000000000600052603260045260246000fd5b906000526020600020906005020160040160006101000a81548160ff0219169083151502179055505b5b613f56878761445b565b50506134ee565b60008480549050148015613f715750600081115b8015613f81575060008580549050145b1561417a57600660008481526020019081526020016000206000836001811115613fd4577f4e487b7100000000000000000000000000000000000000000000000000000000600052602160045260246000fd5b81526020019081526020016000206040518060c00160405280613ff760086134df565b81526020013373ffffffffffffffffffffffffffffffffffffffff168152602001846001811115614051577f4e487b7100000000000000000000000000000000000000000000000000000000600052602160045260246000fd5b81526020018581526020018381526020016000151581525090806001815401808255809150506001900390600052602060002090600502016000909190919091506000820151816000015560208201518160010160006101000a81548173ffffffffffffffffffffffffffffffffffffffff021916908373ffffffffffffffffffffffffffffffffffffffff16021790555060408201518160010160146101000a81548160ff02191690836001811115614134577f4e487b7100000000000000000000000000000000000000000000000000000000600052602160045260246000fd5b0217905550606082015181600201556080820151816003015560a08201518160040160006101000a81548160ff02191690831515021790555050506141796008614181565b5b5050505050565b6001816000016000828254019250508190555050565b600033905090565b60008060009054906101000a900473ffffffffffffffffffffffffffffffffffffffff169050816000806101000a81548173ffffffffffffffffffffffffffffffffffffffff021916908373ffffffffffffffffffffffffffffffffffffffff1602179055508173ffffffffffffffffffffffffffffffffffffffff168173ffffffffffffffffffffffffffffffffffffffff167f8be0079c531659141344cd1fd0a4f28419497f9722a3daafe3b4186f6b6457e060405160405180910390a35050565b6000848660a001516142759190615ac5565b905080600360008673ffffffffffffffffffffffffffffffffffffffff1673ffffffffffffffffffffffffffffffffffffffff16815260200190815260200160002060007f4554480000000000000000000000000000000000000000000000000000000000815260200190815260200160002060008282546142f79190615a6f565b9250508190555084600360008673ffffffffffffffffffffffffffffffffffffffff1673ffffffffffffffffffffffffffffffffffffffff1681526020019081526020016000206000848152602001908152602001600020600082825461435e9190615b1f565b9250508190555080600360008573ffffffffffffffffffffffffffffffffffffffff1673ffffffffffffffffffffffffffffffffffffffff16815260200190815260200160002060007f4554480000000000000000000000000000000000000000000000000000000000815260200190815260200160002060008282546143e59190615b1f565b9250508190555084600360008573ffffffffffffffffffffffffffffffffffffffff1673ffffffffffffffffffffffffffffffffffffffff1681526020019081526020016000206000848152602001908152602001600020600082825461444c9190615a6f565b92505081905550505050505050565b81600081548110614495577f4e487b7100000000000000000000000000000000000000000000000000000000600052603260045260246000fd5b906000526020600020906006020160050160009054906101000a900460ff16156147645760005b600183805490506144cd9190615b1f565b8110156146a357826001826144e29190615a6f565b81548110614519577f4e487b7100000000000000000000000000000000000000000000000000000000600052603260045260246000fd5b9060005260206000209060060201838281548110614560577f4e487b7100000000000000000000000000000000000000000000000000000000600052603260045260246000fd5b9060005260206000209060060201600082015481600001556001820160009054906101000a900473ffffffffffffffffffffffffffffffffffffffff168160010160006101000a81548173ffffffffffffffffffffffffffffffffffffffff021916908373ffffffffffffffffffffffffffffffffffffffff1602179055506001820160149054906101000a900460ff168160010160146101000a81548160ff0219169083600181111561463d577f4e487b7100000000000000000000000000000000000000000000000000000000600052602160045260246000fd5b02179055506002820154816002015560038201548160030155600482015481600401556005820160009054906101000a900460ff168160050160006101000a81548160ff021916908315150217905550905050808061469b90615c6d565b9150506144bc565b50818054806146db577f4e487b7100000000000000000000000000000000000000000000000000000000600052603160045260246000fd5b60019003818190600052602060002090600602016000808201600090556001820160006101000a81549073ffffffffffffffffffffffffffffffffffffffff02191690556001820160146101000a81549060ff02191690556002820160009055600382016000905560048201600090556005820160006101000a81549060ff0219169055505090555b600081805490501180156147cd5750806000815481106147ad577f4e487b7100000000000000000000000000000000000000000000000000000000600052603260045260246000fd5b906000526020600020906005020160040160009054906101000a900460ff165b15614a6b5760005b600182805490506147e69190615b1f565b8110156149b257816001826147fb9190615a6f565b81548110614832577f4e487b7100000000000000000000000000000000000000000000000000000000600052603260045260246000fd5b9060005260206000209060050201828281548110614879577f4e487b7100000000000000000000000000000000000000000000000000000000600052603260045260246000fd5b9060005260206000209060050201600082015481600001556001820160009054906101000a900473ffffffffffffffffffffffffffffffffffffffff168160010160006101000a81548173ffffffffffffffffffffffffffffffffffffffff021916908373ffffffffffffffffffffffffffffffffffffffff1602179055506001820160149054906101000a900460ff168160010160146101000a81548160ff02191690836001811115614956577f4e487b7100000000000000000000000000000000000000000000000000000000600052602160045260246000fd5b021790555060028201548160020155600382015481600301556004820160009054906101000a900460ff168160040160006101000a81548160ff02191690831515021790555090505080806149aa90615c6d565b9150506147d5565b50808054806149ea577f4e487b7100000000000000000000000000000000000000000000000000000000600052603160045260246000fd5b60019003818190600052602060002090600502016000808201600090556001820160006101000a81549073ffffffffffffffffffffffffffffffffffffffff02191690556001820160146101000a81549060ff0219169055600282016000905560038201600090556004820160006101000a81549060ff0219169055505090555b5050565b6040518060a001604052806060815260200160008019168152602001600073ffffffffffffffffffffffffffffffffffffffff16815260200160008152602001600067ffffffffffffffff1681525090565b828054614acd90615c3b565b90600052602060002090601f016020900481019282614aef5760008555614b36565b82601f10614b0857805160ff1916838001178555614b36565b82800160010185558215614b36579182015b82811115614b35578251825591602001919060010190614b1a565b5b509050614b439190614b47565b5090565b5b80821115614b60576000816000905550600101614b48565b5090565b600081359050614b7381615d68565b92915050565b600081519050614b8881615d7f565b92915050565b600081359050614b9d81615d96565b92915050565b600081359050614bb281615dad565b92915050565b600081359050614bc781615dbd565b92915050565b600081519050614bdc81615dbd565b92915050565b600060208284031215614bf457600080fd5b6000614c0284828501614b64565b91505092915050565b60008060408385031215614c1e57600080fd5b6000614c2c85828601614b64565b9250506020614c3d85828601614b8e565b9150509250929050565b600060208284031215614c5957600080fd5b6000614c6784828501614b79565b91505092915050565b600060208284031215614c8257600080fd5b6000614c9084828501614b8e565b91505092915050565b60008060408385031215614cac57600080fd5b6000614cba85828601614b8e565b9250506020614ccb85828601614b64565b9150509250929050565b60008060408385031215614ce857600080fd5b6000614cf685828601614b8e565b9250506020614d0785828601614ba3565b9150509250929050565b600080600060608486031215614d2657600080fd5b6000614d3486828701614b8e565b9350506020614d4586828701614bb8565b9250506040614d5686828701614bb8565b9150509250925092565b600080600060608486031215614d7557600080fd5b6000614d8386828701614ba3565b9350506020614d9486828701614b8e565b9250506040614da586828701614bb8565b9150509250925092565b60008060008060808587031215614dc557600080fd5b6000614dd387828801614ba3565b9450506020614de487828801614b8e565b9350506040614df587828801614bb8565b9250506060614e0687828801614bb8565b91505092959194509250565b600060208284031215614e2457600080fd5b6000614e3284828501614bb8565b91505092915050565b600060208284031215614e4d57600080fd5b6000614e5b84828501614bcd565b91505092915050565b60008060408385031215614e7757600080fd5b6000614e8585828601614bb8565b9250506020614e9685828601614b8e565b9150509250929050565b6000614eac838361503e565b60208301905092915050565b6000614ec4838361548f565b60e08301905092915050565b6000614edc838361551d565b60c08301905092915050565b614ef181615b53565b82525050565b614f0081615b53565b82525050565b6000614f11826159bc565b614f1b8185615a0f565b9350614f268361598c565b8060005b83811015614f57578151614f3e8882614ea0565b9750614f49836159e8565b925050600181019050614f2a565b5085935050505092915050565b6000614f6f826159c7565b614f798185615a20565b9350614f848361599c565b8060005b83811015614fb5578151614f9c8882614eb8565b9750614fa7836159f5565b925050600181019050614f88565b5085935050505092915050565b6000614fcd826159d2565b614fd78185615a31565b9350614fe2836159ac565b8060005b83811015615013578151614ffa8882614ed0565b975061500583615a02565b925050600181019050614fe6565b5085935050505092915050565b61502981615b65565b82525050565b61503881615b65565b82525050565b61504781615b71565b82525050565b61505681615b71565b82525050565b61506581615bcc565b82525050565b61507481615bcc565b82525050565b6000615085826159dd565b61508f8185615a4d565b935061509f818560208601615bde565b6150a881615d43565b840191505092915050565b60006150c0601083615a5e565b91507f496e73756666696369656e7420455448000000000000000000000000000000006000830152602082019050919050565b6000615100601c83615a5e565b91507f57616c6c65743a20696e73756666696369656e742062616c616e6365000000006000830152602082019050919050565b6000615140602683615a5e565b91507f4f776e61626c653a206e6577206f776e657220697320746865207a65726f206160008301527f64647265737300000000000000000000000000000000000000000000000000006020830152604082019050919050565b60006151a6601a83615a5e565b91507f5769746864726177616c20616d6f756e742065786365656465640000000000006000830152602082019050919050565b60006151e6601c83615a5e565b91507f436f7374206578646565647320746865204554482062616c616e6365000000006000830152602082019050919050565b6000615226602683615a5e565b91507f4465706f7369742062616c616e636520696e20796f757220746f6b656e20636f60008301527f6e747261637400000000000000000000000000000000000000000000000000006020830152604082019050919050565b600061528c601b83615a5e565b91507f57616c6c65743a20546f6b656e20616c726561647920657869737400000000006000830152602082019050919050565b60006152cc601b83615a5e565b91507f496e73756666696369656e7420746f6b656e7320746f2073656c6c00000000006000830152602082019050919050565b600061530c601b83615a5e565b91507f57616c6c65743a20746f6b656e20646f65736e277420657869737400000000006000830152602082019050919050565b600061534c602083615a5e565b91507f4f776e61626c653a2063616c6c6572206973206e6f7420746865206f776e65726000830152602082019050919050565b600061538c601d83615a5e565b91507f4572726f7220776974682074686520455448207769746864726177616c0000006000830152602082019050919050565b60006153cc600083615a42565b9150600082019050919050565b60006153e6601a83615a5e565b91507f496e737566666963656e7420746f6b656e7320746f2073656c6c0000000000006000830152602082019050919050565b600060a0830160008301518482036000860152615436828261507a565b915050602083015161544b602086018261503e565b50604083015161545e6040860182614ee8565b5060608301516154716060860182615598565b50608083015161548460808601826155b6565b508091505092915050565b60e0820160008201516154a56000850182615598565b5060208201516154b86020850182614ee8565b5060408201516154cb604085018261505c565b5060608201516154de606085018261503e565b5060808201516154f16080850182615598565b5060a082015161550460a0850182615598565b5060c082015161551760c0850182615020565b50505050565b60c0820160008201516155336000850182615598565b5060208201516155466020850182614ee8565b506040820151615559604085018261505c565b50606082015161556c606085018261503e565b50608082015161557f6080850182615598565b5060a082015161559260a0850182615020565b50505050565b6155a181615bae565b82525050565b6155b081615bae565b82525050565b6155bf81615bb8565b82525050565b60006155d0826153bf565b9150819050919050565b60006020820190506155ef6000830184614ef7565b92915050565b600060608201905061560a6000830186614ef7565b6156176020830185614ef7565b61562460408301846155a7565b949350505050565b60006040820190506156416000830185614ef7565b61564e60208301846155a7565b9392505050565b6000602082019050818103600083015261566f8184614f06565b905092915050565b600060208201905081810360008301526156918184614f64565b905092915050565b600060208201905081810360008301526156b38184614fc2565b905092915050565b60006020820190506156d0600083018461504d565b92915050565b60006040820190506156eb600083018561504d565b6156f86020830184614ef7565b9392505050565b60006020820190508181036000830152615718816150b3565b9050919050565b60006020820190508181036000830152615738816150f3565b9050919050565b6000602082019050818103600083015261575881615133565b9050919050565b6000602082019050818103600083015261577881615199565b9050919050565b60006020820190508181036000830152615798816151d9565b9050919050565b600060208201905081810360008301526157b881615219565b9050919050565b600060208201905081810360008301526157d88161527f565b9050919050565b600060208201905081810360008301526157f8816152bf565b9050919050565b60006020820190508181036000830152615818816152ff565b9050919050565b600060208201905081810360008301526158388161533f565b9050919050565b600060208201905081810360008301526158588161537f565b9050919050565b60006020820190508181036000830152615878816153d9565b9050919050565b600060208201905081810360008301526158998184615419565b905092915050565b60006020820190506158b660008301846155a7565b92915050565b600060c0820190506158d160008301896155a7565b6158de6020830188614ef7565b6158eb604083018761506b565b6158f8606083018661504d565b61590560808301856155a7565b61591260a083018461502f565b979650505050505050565b600060e082019050615932600083018a6155a7565b61593f6020830189614ef7565b61594c604083018861506b565b615959606083018761504d565b61596660808301866155a7565b61597360a08301856155a7565b61598060c083018461502f565b98975050505050505050565b6000819050602082019050919050565b6000819050602082019050919050565b6000819050602082019050919050565b600081519050919050565b600081519050919050565b600081519050919050565b600081519050919050565b6000602082019050919050565b6000602082019050919050565b6000602082019050919050565b600082825260208201905092915050565b600082825260208201905092915050565b600082825260208201905092915050565b600081905092915050565b600082825260208201905092915050565b600082825260208201905092915050565b6000615a7a82615bae565b9150615a8583615bae565b9250827fffffffffffffffffffffffffffffffffffffffffffffffffffffffffffffffff03821115615aba57615ab9615cb6565b5b828201905092915050565b6000615ad082615bae565b9150615adb83615bae565b9250817fffffffffffffffffffffffffffffffffffffffffffffffffffffffffffffffff0483118215151615615b1457615b13615cb6565b5b828202905092915050565b6000615b2a82615bae565b9150615b3583615bae565b925082821015615b4857615b47615cb6565b5b828203905092915050565b6000615b5e82615b8e565b9050919050565b60008115159050919050565b6000819050919050565b6000819050615b8982615d54565b919050565b600073ffffffffffffffffffffffffffffffffffffffff82169050919050565b6000819050919050565b600067ffffffffffffffff82169050919050565b6000615bd782615b7b565b9050919050565b60005b83811015615bfc578082015181840152602081019050615be1565b83811115615c0b576000848401525b50505050565b6000615c1c82615bae565b91506000821415615c3057615c2f615cb6565b5b600182039050919050565b60006002820490506001821680615c5357607f821691505b60208210811415615c6757615c66615d14565b5b50919050565b6000615c7882615bae565b91507fffffffffffffffffffffffffffffffffffffffffffffffffffffffffffffffff821415615cab57615caa615cb6565b5b600182019050919050565b7f4e487b7100000000000000000000000000000000000000000000000000000000600052601160045260246000fd5b7f4e487b7100000000000000000000000000000000000000000000000000000000600052602160045260246000fd5b7f4e487b7100000000000000000000000000000000000000000000000000000000600052602260045260246000fd5b6000601f19601f8301169050919050565b60028110615d6557615d64615ce5565b5b50565b615d7181615b53565b8114615d7c57600080fd5b50565b615d8881615b65565b8114615d9357600080fd5b50565b615d9f81615b71565b8114615daa57600080fd5b50565b60028110615dba57600080fd5b50565b615dc681615bae565b8114615dd157600080fd5b5056fea2646970667358221220e56130848592b40bea959157feef81f048146dea1d8d3ba930236b3ebb1cb4f064736f6c63430008000033",
  "immutableReferences": {},
  "source": "// SPDX-License-Identifier: MIT\r\n\r\npragma solidity >=0.4.22 <0.9.0;\r\nimport '../contracts/wallet.sol';\r\nimport '@openzeppelin/contracts/utils/Counters.sol';\r\n\r\n\r\ncontract Dex is MyWallet{\r\n\r\n    using Counters for Counters.Counter; \r\n    \r\n    enum Side{\r\n        BUY,\r\n        SELL\r\n    }\r\n\r\n   struct Order{\r\n       uint id;\r\n       address trader;\r\n       Side side;\r\n       bytes32 ticker;\r\n       uint amount;\r\n       uint price;\r\n       bool filled;\r\n   }\r\n\r\n    struct marketOrder{\r\n       uint id;\r\n       address trader;\r\n       Side side;\r\n       bytes32 ticker;\r\n       uint amount;\r\n       bool filled;\r\n   }\r\n\r\n\r\n   mapping(bytes32 => mapping(uint => Order[]))public orderBook;\r\n   mapping(bytes32 => mapping(uint => marketOrder[]))public marketOrderBook;\r\n   Counters.Counter private _counterIds;\r\n   Counters.Counter private _marketIds;\r\n\r\n   function getBalance(bytes32 ticker) public view returns (uint256) {\r\n       return balances[msg.sender][ticker];\r\n   }\r\n  \r\n   function getOrderBook(bytes32 _ticker,Side side) public view returns(Order[] memory){\r\n       return orderBook[_ticker][uint(side)];\r\n   }\r\n\r\n   function getMarketOrderBook(bytes32 _ticker,Side side) public view returns(marketOrder[] memory){\r\n       return marketOrderBook[_ticker][uint(side)];\r\n   }\r\n \r\n   function createLimitOrder(Side side,bytes32 ticker,uint amount, uint price) public{\r\n        if(side == Side.BUY){\r\n            require(getBalance(\"ETH\") >= amount * price,'Cost exdeeds the ETH balance');\r\n        }\r\n        else if(side == Side.SELL){\r\n            require(getBalance(ticker) >= amount,'Insufficient tokens to sell');\r\n        }\r\n\r\n        uint256 newCounterId = _counterIds.current();\r\n        Order[] storage orders = orderBook[ticker][uint(side)];\r\n        orders.push(Order(newCounterId,msg.sender,side,ticker,amount,price, false));\r\n         \r\n        uint j =  orders.length > 0 ? orders.length-1 : 0;\r\n         if(side == Side.BUY){\r\n            for( ; j > 0 ; j--){\r\n                 if(orders[j].price > orders[j-1].price){\r\n                    Order memory temp = orders[j];\r\n                    orders[j] = orders[j-1];\r\n                    orders[j-1] = temp;\r\n                }\r\n                else{\r\n                    break;\r\n                }\r\n            }\r\n            if(marketOrderBook[ticker][1].length > 0){\r\n              settleOrder(orders, marketOrderBook[ticker][1], ticker, Side.SELL,0);\r\n            }\r\n            \r\n         }\r\n         else if(side == Side.SELL){\r\n            for(; j > 0 ; j--){\r\n                 if(orders[j].price < orders[j-1].price){\r\n                    Order memory temp = orders[j];\r\n                    orders[j] = orders[j-1];\r\n                    orders[j-1] = temp;\r\n                }\r\n                else{\r\n                    break;\r\n                }\r\n            }\r\n            if(marketOrderBook[ticker][0].length > 0){\r\n              settleOrder(orders, marketOrderBook[ticker][0], ticker, Side.BUY,0);\r\n            }\r\n            \r\n         }\r\n          _counterIds.increment();\r\n    }\r\n \r\n   \r\n   function createMarketOrder(Side side, bytes32 ticker, uint amount) public {\r\n    \r\n        if(Side.SELL == side){\r\n            require(amount <= getBalance(ticker),\"Insufficent tokens to sell\");\r\n        \r\n            uint newCounterId = _marketIds.current();\r\n            marketOrder[] storage marketOrders = marketOrderBook[ticker][1];\r\n            Order[] storage orders = orderBook[ticker][0];\r\n            if(orders.length == 0){\r\n              marketOrders.push(marketOrder(newCounterId,msg.sender,side,ticker,amount, false));\r\n              _marketIds.increment();\r\n            }\r\n            else{\r\n              settleOrder(orders, marketOrders, ticker, side,amount);\r\n            }\r\n            \r\n        }\r\n        else if(Side.BUY == side){\r\n            \r\n            uint newCounterId = _marketIds.current();\r\n            marketOrder[] storage marketOrders = marketOrderBook[ticker][0];\r\n            Order[] storage orders = orderBook[ticker][1]; \r\n            if(orders.length == 0){\r\n               marketOrders.push(marketOrder(newCounterId,msg.sender,side,ticker,amount, false));\r\n               _marketIds.increment();\r\n            }\r\n            else{\r\n              settleOrder(orderBook[ticker][1], marketOrderBook[ticker][0], ticker, side,amount);\r\n            }\r\n        }\r\n         \r\n   }\r\n\r\n   function settleOrder(Order[] storage orders, marketOrder[] storage marketOrders, bytes32 ticker, Side side,uint amount) private {\r\n            \r\n       while(orders.length > 0 && (marketOrders.length > 0 || amount > 0)){\r\n           address trader;\r\n           uint expectedAmount = 0;\r\n           if(marketOrders.length > 0){\r\n               trader = marketOrders[0].trader;\r\n               amount = marketOrders[0].amount;\r\n           }\r\n           else{\r\n               trader = msg.sender;\r\n           }\r\n           if (side == Side.BUY) {\r\n                require(balances[trader][\"ETH\"] > orders[0].price * orders[0].amount,\"Insufficient ETH\");\r\n            }\r\n           \r\n            if (amount >= orders[0].amount) {\r\n                amount -= orders[0].amount;\r\n                orders[0].filled = true;\r\n                expectedAmount = orders[0].amount;\r\n                orders[0].amount = 0;\r\n            }\r\n         \r\n            else if(amount < orders[0].amount){\r\n                orders[0].amount -= amount;\r\n                expectedAmount = amount;\r\n                amount = 0;\r\n            }\r\n            \r\n            if (side == Side.BUY) {\r\n                settleTrade(orders[0], expectedAmount, orders[0].trader, trader, ticker);\r\n            }\r\n            else {\r\n                settleTrade(orders[0], expectedAmount, trader, orders[0].trader, ticker);\r\n            }\r\n            \r\n            if(marketOrders.length > 0){\r\n                marketOrders[0].amount = amount;\r\n                if(amount == 0){\r\n                  marketOrders[0].filled = true;\r\n                }\r\n            }\r\n            deleteOrders(orders, marketOrders);\r\n        }\r\n        if(marketOrders.length == 0 && amount > 0 && orders.length == 0 ){\r\n           marketOrderBook[ticker][uint256(side)].push(marketOrder(_marketIds.current(),msg.sender,side,ticker,amount, false));\r\n           _marketIds.increment();\r\n        }\r\n    }\r\n\r\n   function deleteOrders(Order[] storage orders, marketOrder[] storage marketOrders) private {\r\n\r\n    if (orders[0].filled) {\r\n            \r\n        for (uint j = 0; j < orders.length-1; j++){\r\n            orders[j] = orders[j+1];\r\n        }    \r\n        orders.pop();\r\n    }\r\n\r\n    if(marketOrders.length > 0 && marketOrders[0].filled){\r\n       for (uint j = 0; j < marketOrders.length-1; j++){\r\n            marketOrders[j] = marketOrders[j+1];\r\n        }    \r\n            marketOrders.pop();\r\n    }\r\n   }\r\n\r\n   function settleTrade(Order memory temp, uint amt, address seller, address buyer,bytes32 _ticker) private{\r\n        uint cost = temp.price * amt;\r\n        balances[seller][\"ETH\"] += cost; \r\n        balances[seller][_ticker] -= amt; \r\n        balances[buyer][\"ETH\"] -= cost; \r\n        balances[buyer][_ticker] += amt; \r\n   }\r\n  \r\n}",
  "sourcePath": "D:/BlockChain/Ethereum-201/Moralis Dapp/contracts/dex.sol",
  "compiler": {
    "name": "solc",
    "version": "0.8.0+commit.c7dfd78e.Emscripten.clang"
  },
  "schemaVersion": "3.4.1",
  "updatedAt": "2021-09-09T07:23:30.028Z",
  "networkType": "ethereum",
  "devdoc": {
    "kind": "dev",
    "methods": {
      "owner()": {
        "details": "Returns the address of the current owner."
      },
      "renounceOwnership()": {
        "details": "Leaves the contract without owner. It will not be possible to call `onlyOwner` functions anymore. Can only be called by the current owner. NOTE: Renouncing ownership will leave the contract without an owner, thereby removing any functionality that is only available to the owner."
      },
      "transferOwnership(address)": {
        "details": "Transfers ownership of the contract to a new account (`newOwner`). Can only be called by the current owner."
      }
    },
    "version": 1
  },
  "userdoc": {
    "kind": "user",
    "methods": {},
    "version": 1
  }
}