{
  "contractName": "MyWallet",
  "abi": [
    {
      "anonymous": false,
      "inputs": [
        {
          "indexed": true,
          "internalType": "address",
          "name": "previousOwner",
          "type": "address"
        },
        {
          "indexed": true,
          "internalType": "address",
          "name": "newOwner",
          "type": "address"
        }
      ],
      "name": "OwnershipTransferred",
      "type": "event"
    },
    {
      "inputs": [
        {
          "internalType": "address",
          "name": "",
          "type": "address"
        },
        {
          "internalType": "bytes32",
          "name": "",
          "type": "bytes32"
        }
      ],
      "name": "balances",
      "outputs": [
        {
          "internalType": "uint256",
          "name": "",
          "type": "uint256"
        }
      ],
      "stateMutability": "view",
      "type": "function"
    },
    {
      "inputs": [],
      "name": "owner",
      "outputs": [
        {
          "internalType": "address",
          "name": "",
          "type": "address"
        }
      ],
      "stateMutability": "view",
      "type": "function"
    },
    {
      "inputs": [],
      "name": "renounceOwnership",
      "outputs": [],
      "stateMutability": "nonpayable",
      "type": "function"
    },
    {
      "inputs": [
        {
          "internalType": "uint256",
          "name": "",
          "type": "uint256"
        }
      ],
      "name": "tickerList",
      "outputs": [
        {
          "internalType": "bytes32",
          "name": "",
          "type": "bytes32"
        }
      ],
      "stateMutability": "view",
      "type": "function"
    },
    {
      "inputs": [
        {
          "internalType": "bytes32",
          "name": "",
          "type": "bytes32"
        }
      ],
      "name": "tokenMapping",
      "outputs": [
        {
          "internalType": "bytes32",
          "name": "ticker",
          "type": "bytes32"
        },
        {
          "internalType": "address",
          "name": "tokenAddress",
          "type": "address"
        }
      ],
      "stateMutability": "view",
      "type": "function"
    },
    {
      "inputs": [
        {
          "internalType": "address",
          "name": "newOwner",
          "type": "address"
        }
      ],
      "name": "transferOwnership",
      "outputs": [],
      "stateMutability": "nonpayable",
      "type": "function"
    },
    {
      "inputs": [],
      "name": "getTickers",
      "outputs": [
        {
          "internalType": "bytes32[]",
          "name": "",
          "type": "bytes32[]"
        }
      ],
      "stateMutability": "view",
      "type": "function"
    },
    {
      "inputs": [
        {
          "internalType": "address",
          "name": "_address",
          "type": "address"
        }
      ],
      "name": "getHistory",
      "outputs": [
        {
          "components": [
            {
              "internalType": "string",
              "name": "action",
              "type": "string"
            },
            {
              "internalType": "bytes32",
              "name": "ticker",
              "type": "bytes32"
            },
            {
              "internalType": "address",
              "name": "_address",
              "type": "address"
            },
            {
              "internalType": "uint256",
              "name": "amount",
              "type": "uint256"
            },
            {
              "internalType": "uint64",
              "name": "creationTime",
              "type": "uint64"
            }
          ],
          "internalType": "struct MyWallet.History",
          "name": "",
          "type": "tuple"
        }
      ],
      "stateMutability": "view",
      "type": "function"
    },
    {
      "inputs": [
        {
          "internalType": "bytes32",
          "name": "_ticker",
          "type": "bytes32"
        },
        {
          "internalType": "address",
          "name": "_tickerAddress",
          "type": "address"
        }
      ],
      "name": "addToken",
      "outputs": [],
      "stateMutability": "nonpayable",
      "type": "function"
    },
    {
      "inputs": [
        {
          "internalType": "uint256",
          "name": "_amount",
          "type": "uint256"
        },
        {
          "internalType": "bytes32",
          "name": "_ticker",
          "type": "bytes32"
        }
      ],
      "name": "deposit",
      "outputs": [],
      "stateMutability": "nonpayable",
      "type": "function"
    },
    {
      "inputs": [],
      "name": "depositETH",
      "outputs": [],
      "stateMutability": "payable",
      "type": "function"
    },
    {
      "inputs": [
        {
          "internalType": "uint256",
          "name": "amount",
          "type": "uint256"
        }
      ],
      "name": "withdrawETH",
      "outputs": [],
      "stateMutability": "nonpayable",
      "type": "function"
    },
    {
      "inputs": [
        {
          "internalType": "uint256",
          "name": "_amount",
          "type": "uint256"
        },
        {
          "internalType": "bytes32",
          "name": "_ticker",
          "type": "bytes32"
        }
      ],
      "name": "withdraw",
      "outputs": [],
      "stateMutability": "nonpayable",
      "type": "function"
    }
  ],
  "bytecode": "0x608060405234801561001057600080fd5b5061002d61002261003260201b60201c565b61003a60201b60201c565b6100fe565b600033905090565b60008060009054906101000a900473ffffffffffffffffffffffffffffffffffffffff169050816000806101000a81548173ffffffffffffffffffffffffffffffffffffffff021916908373ffffffffffffffffffffffffffffffffffffffff1602179055508173ffffffffffffffffffffffffffffffffffffffff168173ffffffffffffffffffffffffffffffffffffffff167f8be0079c531659141344cd1fd0a4f28419497f9722a3daafe3b4186f6b6457e060405160405180910390a35050565b61245c806200010e6000396000f3fe6080604052600436106100c25760003560e01c80639776aacf1161007f578063cb3764a811610059578063cb3764a814610267578063f14210a6146102a4578063f2fde38b146102cd578063f6326fb3146102f6576100c2565b80639776aacf146101ec578063a8d2021a14610215578063c9630cb01461023e576100c2565b806301068dea146100c75780631f14df69146100f2578063667cb4ba1461012f578063715018a61461016d57806380396811146101845780638da5cb5b146101c1575b600080fd5b3480156100d357600080fd5b506100dc610300565b6040516100e99190611ff2565b60405180910390f35b3480156100fe57600080fd5b5061011960048036038101906101149190611a16565b610358565b604051610126919061217a565b60405180910390f35b34801561013b57600080fd5b5061015660048036038101906101519190611a7b565b61037d565b60405161016492919061202f565b60405180910390f35b34801561017957600080fd5b506101826103c1565b005b34801561019057600080fd5b506101ab60048036038101906101a691906119ed565b610449565b6040516101b89190612158565b60405180910390f35b3480156101cd57600080fd5b506101d661062c565b6040516101e39190611f77565b60405180910390f35b3480156101f857600080fd5b50610213600480360381019061020e9190611aa4565b610655565b005b34801561022157600080fd5b5061023c60048036038101906102379190611b32565b610835565b005b34801561024a57600080fd5b5061026560048036038101906102609190611b32565b610c4f565b005b34801561027357600080fd5b5061028e60048036038101906102899190611ae0565b6110a9565b60405161029b9190612014565b60405180910390f35b3480156102b057600080fd5b506102cb60048036038101906102c69190611ae0565b6110cd565b005b3480156102d957600080fd5b506102f460048036038101906102ef91906119ed565b611480565b005b6102fe611578565b005b6060600180548060200260200160405190810160405280929190818152602001828054801561034e57602002820191906000526020600020905b81548152602001906001019080831161033a575b5050505050905090565b6003602052816000526040600020602052806000526040600020600091509150505481565b60026020528060005260406000206000915090508060000154908060010160009054906101000a900473ffffffffffffffffffffffffffffffffffffffff16905082565b6103c96117c3565b73ffffffffffffffffffffffffffffffffffffffff166103e761062c565b73ffffffffffffffffffffffffffffffffffffffff161461043d576040517f08c379a000000000000000000000000000000000000000000000000000000000815260040161043490612118565b60405180910390fd5b61044760006117cb565b565b61045161188f565b6000600460008473ffffffffffffffffffffffffffffffffffffffff1673ffffffffffffffffffffffffffffffffffffffff168152602001908152602001600020905080600182805490506104a6919061225c565b815481106104dd577f4e487b7100000000000000000000000000000000000000000000000000000000600052603260045260246000fd5b90600052602060002090600502016040518060a001604052908160008201805461050690612329565b80601f016020809104026020016040519081016040528092919081815260200182805461053290612329565b801561057f5780601f106105545761010080835404028352916020019161057f565b820191906000526020600020905b81548152906001019060200180831161056257829003601f168201915b50505050508152602001600182015481526020016002820160009054906101000a900473ffffffffffffffffffffffffffffffffffffffff1673ffffffffffffffffffffffffffffffffffffffff1673ffffffffffffffffffffffffffffffffffffffff168152602001600382015481526020016004820160009054906101000a900467ffffffffffffffff1667ffffffffffffffff1667ffffffffffffffff1681525050915050919050565b60008060009054906101000a900473ffffffffffffffffffffffffffffffffffffffff16905090565b61065d6117c3565b73ffffffffffffffffffffffffffffffffffffffff1661067b61062c565b73ffffffffffffffffffffffffffffffffffffffff16146106d1576040517f08c379a00000000000000000000000000000000000000000000000000000000081526004016106c890612118565b60405180910390fd5b600073ffffffffffffffffffffffffffffffffffffffff166002600084815260200190815260200160002060010160009054906101000a900473ffffffffffffffffffffffffffffffffffffffff1673ffffffffffffffffffffffffffffffffffffffff1614610776576040517f08c379a000000000000000000000000000000000000000000000000000000000815260040161076d906120d8565b60405180910390fd5b60405180604001604052808381526020018273ffffffffffffffffffffffffffffffffffffffff16815250600260008481526020019081526020016000206000820151816000015560208201518160010160006101000a81548173ffffffffffffffffffffffffffffffffffffffff021916908373ffffffffffffffffffffffffffffffffffffffff16021790555090505060018290806001815401808255809150506001900390600052602060002001600090919091909150555050565b80600073ffffffffffffffffffffffffffffffffffffffff166002600083815260200190815260200160002060010160009054906101000a900473ffffffffffffffffffffffffffffffffffffffff1673ffffffffffffffffffffffffffffffffffffffff1614156108dc576040517f08c379a00000000000000000000000000000000000000000000000000000000081526004016108d3906120f8565b60405180910390fd5b82600360006108e96117c3565b73ffffffffffffffffffffffffffffffffffffffff1673ffffffffffffffffffffffffffffffffffffffff1681526020019081526020016000206000848152602001908152602001600020541015610976576040517f08c379a000000000000000000000000000000000000000000000000000000000815260040161096d90612058565b60405180910390fd5b82600360006109836117c3565b73ffffffffffffffffffffffffffffffffffffffff1673ffffffffffffffffffffffffffffffffffffffff168152602001908152602001600020600084815260200190815260200160002060008282546109dd919061225c565b92505081905550600460006109f06117c3565b73ffffffffffffffffffffffffffffffffffffffff1673ffffffffffffffffffffffffffffffffffffffff1681526020019081526020016000206040518060a001604052806040518060400160405280600881526020017f57697468647261770000000000000000000000000000000000000000000000008152508152602001848152602001610a7e6117c3565b73ffffffffffffffffffffffffffffffffffffffff1681526020018581526020014267ffffffffffffffff1681525090806001815401808255809150506001900390600052602060002090600502016000909190919091506000820151816000019080519060200190610af29291906118e1565b506020820151816001015560408201518160020160006101000a81548173ffffffffffffffffffffffffffffffffffffffff021916908373ffffffffffffffffffffffffffffffffffffffff1602179055506060820151816003015560808201518160040160006101000a81548167ffffffffffffffff021916908367ffffffffffffffff16021790555050506002600083815260200190815260200160002060010160009054906101000a900473ffffffffffffffffffffffffffffffffffffffff1673ffffffffffffffffffffffffffffffffffffffff1663a9059cbb610bd96117c3565b856040518363ffffffff1660e01b8152600401610bf7929190611fc9565b602060405180830381600087803b158015610c1157600080fd5b505af1158015610c25573d6000803e3d6000fd5b505050506040513d601f19601f82011682018060405250810190610c499190611a52565b50505050565b80600073ffffffffffffffffffffffffffffffffffffffff166002600083815260200190815260200160002060010160009054906101000a900473ffffffffffffffffffffffffffffffffffffffff1673ffffffffffffffffffffffffffffffffffffffff161415610cf6576040517f08c379a0000000000000000000000000000000000000000000000000000000008152600401610ced906120f8565b60405180910390fd5b60006002600084815260200190815260200160002060010160009054906101000a900473ffffffffffffffffffffffffffffffffffffffff169050838173ffffffffffffffffffffffffffffffffffffffff166370a08231610d566117c3565b6040518263ffffffff1660e01b8152600401610d729190611f77565b60206040518083038186803b158015610d8a57600080fd5b505afa158015610d9e573d6000803e3d6000fd5b505050506040513d601f19601f82011682018060405250810190610dc29190611b09565b1015610e03576040517f08c379a0000000000000000000000000000000000000000000000000000000008152600401610dfa906120b8565b60405180910390fd5b8360036000610e106117c3565b73ffffffffffffffffffffffffffffffffffffffff1673ffffffffffffffffffffffffffffffffffffffff16815260200190815260200160002060008581526020019081526020016000206000828254610e6a9190612206565b9250508190555060046000610e7d6117c3565b73ffffffffffffffffffffffffffffffffffffffff1673ffffffffffffffffffffffffffffffffffffffff1681526020019081526020016000206040518060a001604052806040518060400160405280600781526020017f4465706f736974000000000000000000000000000000000000000000000000008152508152602001858152602001610f0b6117c3565b73ffffffffffffffffffffffffffffffffffffffff1681526020018681526020014267ffffffffffffffff1681525090806001815401808255809150506001900390600052602060002090600502016000909190919091506000820151816000019080519060200190610f7f9291906118e1565b506020820151816001015560408201518160020160006101000a81548173ffffffffffffffffffffffffffffffffffffffff021916908373ffffffffffffffffffffffffffffffffffffffff1602179055506060820151816003015560808201518160040160006101000a81548167ffffffffffffffff021916908367ffffffffffffffff16021790555050508073ffffffffffffffffffffffffffffffffffffffff166323b872dd6110306117c3565b30876040518463ffffffff1660e01b815260040161105093929190611f92565b602060405180830381600087803b15801561106a57600080fd5b505af115801561107e573d6000803e3d6000fd5b505050506040513d601f19601f820116820180604052508101906110a29190611a52565b5050505050565b600181815481106110b957600080fd5b906000526020600020016000915090505481565b80600360006110da6117c3565b73ffffffffffffffffffffffffffffffffffffffff1673ffffffffffffffffffffffffffffffffffffffff16815260200190815260200160002060007f45544800000000000000000000000000000000000000000000000000000000008152602001908152602001600020541015611187576040517f08c379a000000000000000000000000000000000000000000000000000000000815260040161117e90612098565b60405180910390fd5b80600360006111946117c3565b73ffffffffffffffffffffffffffffffffffffffff1673ffffffffffffffffffffffffffffffffffffffff16815260200190815260200160002060007f45544800000000000000000000000000000000000000000000000000000000008152602001908152602001600020600082825461120e919061225c565b92505081905550600460006112216117c3565b73ffffffffffffffffffffffffffffffffffffffff1673ffffffffffffffffffffffffffffffffffffffff1681526020019081526020016000206040518060a001604052806040518060400160405280600881526020017f576974686472617700000000000000000000000000000000000000000000000081525081526020017f455448000000000000000000000000000000000000000000000000000000000081526020016112cf6117c3565b73ffffffffffffffffffffffffffffffffffffffff1681526020018381526020014267ffffffffffffffff16815250908060018154018082558091505060019003906000526020600020906005020160009091909190915060008201518160000190805190602001906113439291906118e1565b506020820151816001015560408201518160020160006101000a81548173ffffffffffffffffffffffffffffffffffffffff021916908373ffffffffffffffffffffffffffffffffffffffff1602179055506060820151816003015560808201518160040160006101000a81548167ffffffffffffffff021916908367ffffffffffffffff160217905550505060003373ffffffffffffffffffffffffffffffffffffffff16826040516113f690611f62565b60006040518083038185875af1925050503d8060008114611433576040519150601f19603f3d011682016040523d82523d6000602084013e611438565b606091505b505090508061147c576040517f08c379a000000000000000000000000000000000000000000000000000000000815260040161147390612138565b60405180910390fd5b5050565b6114886117c3565b73ffffffffffffffffffffffffffffffffffffffff166114a661062c565b73ffffffffffffffffffffffffffffffffffffffff16146114fc576040517f08c379a00000000000000000000000000000000000000000000000000000000081526004016114f390612118565b60405180910390fd5b600073ffffffffffffffffffffffffffffffffffffffff168173ffffffffffffffffffffffffffffffffffffffff16141561156c576040517f08c379a000000000000000000000000000000000000000000000000000000000815260040161156390612078565b60405180910390fd5b611575816117cb565b50565b34600360006115856117c3565b73ffffffffffffffffffffffffffffffffffffffff1673ffffffffffffffffffffffffffffffffffffffff16815260200190815260200160002060007f4554480000000000000000000000000000000000000000000000000000000000815260200190815260200160002060008282546115ff9190612206565b92505081905550600460006116126117c3565b73ffffffffffffffffffffffffffffffffffffffff1673ffffffffffffffffffffffffffffffffffffffff1681526020019081526020016000206040518060a001604052806040518060400160405280600781526020017f4465706f7369740000000000000000000000000000000000000000000000000081525081526020017f455448000000000000000000000000000000000000000000000000000000000081526020016116c06117c3565b73ffffffffffffffffffffffffffffffffffffffff1681526020013481526020014267ffffffffffffffff16815250908060018154018082558091505060019003906000526020600020906005020160009091909190915060008201518160000190805190602001906117349291906118e1565b506020820151816001015560408201518160020160006101000a81548173ffffffffffffffffffffffffffffffffffffffff021916908373ffffffffffffffffffffffffffffffffffffffff1602179055506060820151816003015560808201518160040160006101000a81548167ffffffffffffffff021916908367ffffffffffffffff1602179055505050565b600033905090565b60008060009054906101000a900473ffffffffffffffffffffffffffffffffffffffff169050816000806101000a81548173ffffffffffffffffffffffffffffffffffffffff021916908373ffffffffffffffffffffffffffffffffffffffff1602179055508173ffffffffffffffffffffffffffffffffffffffff168173ffffffffffffffffffffffffffffffffffffffff167f8be0079c531659141344cd1fd0a4f28419497f9722a3daafe3b4186f6b6457e060405160405180910390a35050565b6040518060a001604052806060815260200160008019168152602001600073ffffffffffffffffffffffffffffffffffffffff16815260200160008152602001600067ffffffffffffffff1681525090565b8280546118ed90612329565b90600052602060002090601f01602090048101928261190f5760008555611956565b82601f1061192857805160ff1916838001178555611956565b82800160010185558215611956579182015b8281111561195557825182559160200191906001019061193a565b5b5090506119639190611967565b5090565b5b80821115611980576000816000905550600101611968565b5090565b600081359050611993816123ca565b92915050565b6000815190506119a8816123e1565b92915050565b6000813590506119bd816123f8565b92915050565b6000813590506119d28161240f565b92915050565b6000815190506119e78161240f565b92915050565b6000602082840312156119ff57600080fd5b6000611a0d84828501611984565b91505092915050565b60008060408385031215611a2957600080fd5b6000611a3785828601611984565b9250506020611a48858286016119ae565b9150509250929050565b600060208284031215611a6457600080fd5b6000611a7284828501611999565b91505092915050565b600060208284031215611a8d57600080fd5b6000611a9b848285016119ae565b91505092915050565b60008060408385031215611ab757600080fd5b6000611ac5858286016119ae565b9250506020611ad685828601611984565b9150509250929050565b600060208284031215611af257600080fd5b6000611b00848285016119c3565b91505092915050565b600060208284031215611b1b57600080fd5b6000611b29848285016119d8565b91505092915050565b60008060408385031215611b4557600080fd5b6000611b53858286016119c3565b9250506020611b64858286016119ae565b9150509250929050565b6000611b7a8383611c02565b60208301905092915050565b611b8f81612290565b82525050565b611b9e81612290565b82525050565b6000611baf826121a5565b611bb981856121c8565b9350611bc483612195565b8060005b83811015611bf5578151611bdc8882611b6e565b9750611be7836121bb565b925050600181019050611bc8565b5085935050505092915050565b611c0b816122ae565b82525050565b611c1a816122ae565b82525050565b6000611c2b826121b0565b611c3581856121e4565b9350611c458185602086016122f6565b611c4e816123b9565b840191505092915050565b6000611c66601c836121f5565b91507f57616c6c65743a20696e73756666696369656e742062616c616e6365000000006000830152602082019050919050565b6000611ca66026836121f5565b91507f4f776e61626c653a206e6577206f776e657220697320746865207a65726f206160008301527f64647265737300000000000000000000000000000000000000000000000000006020830152604082019050919050565b6000611d0c601a836121f5565b91507f5769746864726177616c20616d6f756e742065786365656465640000000000006000830152602082019050919050565b6000611d4c6026836121f5565b91507f4465706f7369742062616c616e636520696e20796f757220746f6b656e20636f60008301527f6e747261637400000000000000000000000000000000000000000000000000006020830152604082019050919050565b6000611db2601b836121f5565b91507f57616c6c65743a20546f6b656e20616c726561647920657869737400000000006000830152602082019050919050565b6000611df2601b836121f5565b91507f57616c6c65743a20746f6b656e20646f65736e277420657869737400000000006000830152602082019050919050565b6000611e326020836121f5565b91507f4f776e61626c653a2063616c6c6572206973206e6f7420746865206f776e65726000830152602082019050919050565b6000611e72601d836121f5565b91507f4572726f7220776974682074686520455448207769746864726177616c0000006000830152602082019050919050565b6000611eb26000836121d9565b9150600082019050919050565b600060a0830160008301518482036000860152611edc8282611c20565b9150506020830151611ef16020860182611c02565b506040830151611f046040860182611b86565b506060830151611f176060860182611f35565b506080830151611f2a6080860182611f53565b508091505092915050565b611f3e816122d8565b82525050565b611f4d816122d8565b82525050565b611f5c816122e2565b82525050565b6000611f6d82611ea5565b9150819050919050565b6000602082019050611f8c6000830184611b95565b92915050565b6000606082019050611fa76000830186611b95565b611fb46020830185611b95565b611fc16040830184611f44565b949350505050565b6000604082019050611fde6000830185611b95565b611feb6020830184611f44565b9392505050565b6000602082019050818103600083015261200c8184611ba4565b905092915050565b60006020820190506120296000830184611c11565b92915050565b60006040820190506120446000830185611c11565b6120516020830184611b95565b9392505050565b6000602082019050818103600083015261207181611c59565b9050919050565b6000602082019050818103600083015261209181611c99565b9050919050565b600060208201905081810360008301526120b181611cff565b9050919050565b600060208201905081810360008301526120d181611d3f565b9050919050565b600060208201905081810360008301526120f181611da5565b9050919050565b6000602082019050818103600083015261211181611de5565b9050919050565b6000602082019050818103600083015261213181611e25565b9050919050565b6000602082019050818103600083015261215181611e65565b9050919050565b600060208201905081810360008301526121728184611ebf565b905092915050565b600060208201905061218f6000830184611f44565b92915050565b6000819050602082019050919050565b600081519050919050565b600081519050919050565b6000602082019050919050565b600082825260208201905092915050565b600081905092915050565b600082825260208201905092915050565b600082825260208201905092915050565b6000612211826122d8565b915061221c836122d8565b9250827fffffffffffffffffffffffffffffffffffffffffffffffffffffffffffffffff038211156122515761225061235b565b5b828201905092915050565b6000612267826122d8565b9150612272836122d8565b9250828210156122855761228461235b565b5b828203905092915050565b600061229b826122b8565b9050919050565b60008115159050919050565b6000819050919050565b600073ffffffffffffffffffffffffffffffffffffffff82169050919050565b6000819050919050565b600067ffffffffffffffff82169050919050565b60005b838110156123145780820151818401526020810190506122f9565b83811115612323576000848401525b50505050565b6000600282049050600182168061234157607f821691505b602082108114156123555761235461238a565b5b50919050565b7f4e487b7100000000000000000000000000000000000000000000000000000000600052601160045260246000fd5b7f4e487b7100000000000000000000000000000000000000000000000000000000600052602260045260246000fd5b6000601f19601f8301169050919050565b6123d381612290565b81146123de57600080fd5b50565b6123ea816122a2565b81146123f557600080fd5b50565b612401816122ae565b811461240c57600080fd5b50565b612418816122d8565b811461242357600080fd5b5056fea264697066735822122037059cc6f075daf3b3ed1d6bea5349cadfe8a0516b66c639e99ec22cc9f0ac7864736f6c63430008000033",
  "immutableReferences": {},
  "source": "// SPDX-License-Identifier: MIT\r\npragma solidity >=0.4.22 <0.9.0;\r\nimport '@openzeppelin/contracts/access/Ownable.sol';\r\nimport '@openzeppelin/contracts/token/ERC20/IERC20.sol';\r\n\r\ncontract MyWallet is Ownable{\r\n\r\n  struct Token{\r\n      bytes32 ticker;\r\n      address tokenAddress;\r\n  }\r\n\r\n  struct History{\r\n      string action;\r\n      bytes32 ticker;\r\n      address _address;\r\n      uint amount;\r\n      uint64 creationTime;\r\n  }\r\n\r\n   bytes32[] public tickerList;\r\n   mapping(bytes32 => Token) public tokenMapping;\r\n   mapping(address => mapping(bytes32 => uint)) public balances;\r\n   mapping(address => History[]) private txnHistory;\r\n\r\n   modifier tokenExist(bytes32 _ticker){\r\n      require(tokenMapping[_ticker].tokenAddress != address(0),\"Wallet: token doesn't exist\");\r\n      _;\r\n   }\r\n   \r\n   function getTickers() public view returns(bytes32[] memory){\r\n      return tickerList;\r\n   }\r\n   \r\n   function getHistory(address _address) view public returns(History memory){\r\n      History[] storage histories = txnHistory[_address];\r\n      return histories[histories.length - 1];\r\n   }\r\n   \r\n   function addToken(bytes32 _ticker,address _tickerAddress) external onlyOwner{\r\n      require(tokenMapping[_ticker].tokenAddress == address(0),\"Wallet: Token already exist\");\r\n      tokenMapping[_ticker] = Token(_ticker,_tickerAddress);\r\n      tickerList.push(_ticker);\r\n   } \r\n   \r\n   function deposit(uint _amount,bytes32 _ticker) external tokenExist(_ticker){\r\n       IERC20 instance = IERC20(tokenMapping[_ticker].tokenAddress);\r\n       require(instance.balanceOf(_msgSender()) >= _amount,\"Deposit balance in your token contract\");\r\n       balances[_msgSender()][_ticker] += _amount;\r\n       txnHistory[_msgSender()].push(History({action: \"Deposit\",\r\n                                              ticker: _ticker,\r\n                                              _address: _msgSender(),\r\n                                              amount: _amount,\r\n                                              creationTime: uint64(block.timestamp)}));\r\n       instance.transferFrom(_msgSender(), address(this), _amount);\r\n   \r\n   }\r\n\r\n   function depositETH() public payable{\r\n      balances[_msgSender()][\"ETH\"] += msg.value;\r\n      txnHistory[_msgSender()].push(History({action: \"Deposit\",\r\n                                             ticker: \"ETH\",\r\n                                             _address: _msgSender(),\r\n                                             amount: msg.value,\r\n                                             creationTime: uint64(block.timestamp)}));\r\n    }\r\n    \r\n    function withdrawETH(uint amount) public{\r\n       require(balances[_msgSender()][\"ETH\"] >= amount,\"Withdrawal amount exceeded\");\r\n       balances[_msgSender()][\"ETH\"] -= amount;\r\n       txnHistory[_msgSender()].push(History({action: \"Withdraw\",\r\n                                              ticker: \"ETH\",\r\n                                              _address: _msgSender(),\r\n                                              amount: amount,\r\n                                              creationTime: uint64(block.timestamp)}));\r\n       (bool result,) = msg.sender.call{value: amount}(\"\");\r\n       require(result,\"Error with the ETH withdrawal\");\r\n    }\r\n   function withdraw(uint _amount,bytes32 _ticker)external tokenExist(_ticker){\r\n        require(balances[_msgSender()][_ticker] >= _amount,\"Wallet: insufficient balance\");\r\n        balances[_msgSender()][_ticker] -= _amount;\r\n        txnHistory[_msgSender()].push(History({action: \"Withdraw\",\r\n                                              ticker: _ticker,\r\n                                              _address: _msgSender(),\r\n                                              amount: _amount,\r\n                                              creationTime: uint64(block.timestamp)}));\r\n        IERC20(tokenMapping[_ticker].tokenAddress).transfer(_msgSender(), _amount);\r\n   }\r\n   \r\n}",
  "sourcePath": "D:/BlockChain/Ethereum-201/Moralis Dapp/contracts/wallet.sol",
  "compiler": {
    "name": "solc",
    "version": "0.8.0+commit.c7dfd78e.Emscripten.clang"
  },
  "schemaVersion": "3.4.1",
  "updatedAt": "2021-09-06T13:50:00.924Z",
  "devdoc": {
    "kind": "dev",
    "methods": {
      "owner()": {
        "details": "Returns the address of the current owner."
      },
      "renounceOwnership()": {
        "details": "Leaves the contract without owner. It will not be possible to call `onlyOwner` functions anymore. Can only be called by the current owner. NOTE: Renouncing ownership will leave the contract without an owner, thereby removing any functionality that is only available to the owner."
      },
      "transferOwnership(address)": {
        "details": "Transfers ownership of the contract to a new account (`newOwner`). Can only be called by the current owner."
      }
    },
    "version": 1
  },
  "userdoc": {
    "kind": "user",
    "methods": {},
    "version": 1
  }
}